:100000000C94FE000C941B010C94C1050C941B0174
:100010000C941B010C941B010C941B010C941B01F0
:100020000C941B010C941B010C941B010C941B01E0
:100030000C941B010C941B010C94FA050C941B01ED
:100040000C94FE050C941B010C941B010C941B01D9
:100050000C94B30C0C941B010C94710F0C941B01A9
:100060000C941B010C9475130C941B010C941B0134
:100070000C941B010C941B010C941B010C941B0190
:100080000C941B010C941B010C941B010C941B0180
:100090000C941B010C941B010C941B010C941B0170
:1000A0000C941B010C941B010C941B010C94E71184
:1000B0000C941B010C941B010C941B010C941B0150
:1000C0000C941B010C941B010C941B010C941B0140
:1000D0000C941B010C941B010C941B010C941B0130
:1000E0000C941B010C941B010C94B3120C949A11E8
:1000F0000C941B010C941B010C941B010C941B0110
:100100000C9474060C941B010C94C0050C941B01F8
:100110000C941B010C941B010C941B010C941B01EF
:100120000C941B010C941B010C941B010C941B01DF
:100130000C941B010C941B010C941B010C941B01CF
:100140000C941B010C941B010C941B010C94F305E3
:100150000C941B010C941B010C941B010C941B01AF
:100160000C948A060C9453060C941B010C941B01EE
:100170000C941B010C941B010C941B010C941B018F
:100180000C941B010C941B010C941B010C941B017F
:100190000C941B010C941B010C941B010C941B016F
:1001A0000C941B010C941B010C941B010C941B015F
:1001B0000C941B010C941B010C941B010C941B014F
:1001C0000C941B010C941B010C941B010C941B013F
:1001D0000C941B010C941B010C941B010C941B012F
:1001E0000C941B010C941B010C941B010C941B011F
:1001F0000C941B010C941B010C941B0111241FBEB9
:10020000CFEFCDBFDFE2DEBF10E2A0E0B0E2EAE870
:10021000FBE202C005900D92AA3FB107D9F72CE28C
:10022000AAEFB0E201C01D92A330B207E1F70E942D
:100230000C060C94C3150C9400008F92AF92BF92E1
:10024000CF92DF92EF920F938BE990E29F938F937F
:1002500081E1882E9DE3A92EB12C28E7C22E21E250
:10026000D22EE12C01E020E042E061E08EE298E055
:100270000E941C0B0F900F900F91EF90DF90CF908A
:10028000BF90AF908F90089580E098E00E94F707AC
:10029000E0E6F6E081E0868380E1868382E0809379
:1002A000460608950E94900540E064E08CE090E0EE
:1002B0000E9415060C944806E8E7F1E281E0818B84
:1002C0008AEF90E0838B948B858B968B878B908FB6
:1002D00088EE93E0818F928F84E690E0838F948FF5
:1002E000858F968F11A212A213A214A215A216A294
:1002F00017A210A611A612A613A614A615A616A636
:1003000017A610AA11AA12AA13AA14AA15AA16AA05
:1003100017AA10AEE1EBF1E2108211821282138271
:100320001482158216821782089581E991E20C9455
:10033000480508950895EF920F9380FF57C080916C
:100340008B2190918C210297D0F040917521509192
:1003500076219A0136952795EE24E39401E0609189
:10036000772180E098E00E94E30780918B219091B3
:100370008C218093032190930421109274210E9478
:100380002B11882381F180918D2190918E218230D3
:10039000910588F020E120936506809301219093D8
:1003A0000221809193219091942196958795809335
:1003B000FD209093FE2080918F219091902182309A
:1003C000910588F022E0209345068093FF209093CA
:1003D0000021809195219091962196958795809303
:1003E000FB209093FC200F91EF9008950F91EF90D8
:1003F0000C942B118F929F92AF92BF92CF92DF926B
:10040000EF92FF920F931F93CF93DF93C82FE0914A
:100410000521EE23B9F081E08E0F80930521F0E0F5
:10042000E754FE4DC0838031D1F0DF91CF911F9111
:100430000F91FF90EF90DF90CF90BF90AF909F9083
:100440008F90089521E041E752E067E080E499E071
:100450000E94A2081092FA20E0910521DCCF1092B0
:10046000052180E499E00E94AD088091B921823095
:10047000E1F68091C6218D30C1F68091C7218A3086
:10048000A1F68091C821833081F68091BA218A3308
:1004900008F099C180538093BA218091BB218A339F
:1004A00008F095C180538093BB218091BC218A3391
:1004B00008F085C180538093BC218091BD218A338F
:1004C00008F079C180538093BD218091BE218A3389
:1004D00008F06DC180538093BE218091BF218A3383
:1004E00008F061C180538093BF218091C0218A337D
:1004F00008F055C180538093C0218091C1218A3377
:1005000008F049C180538093C1218091C2218A3370
:1005100008F03DC180538093C2218091C3218A336A
:1005200008F031C180538093C3218091C4218A3364
:1005300008F025C180538093C4218091C5218A335E
:1005400008F019C180538093C5218091BA21909100
:10055000BB2120E1829F900D11249093B9218091BD
:10056000BC212091BD2130E1839F200D11242093D7
:10057000BA218091BE213091BF2140E1849F300D8E
:1005800011243093BB218091C0214091C12150E1C1
:10059000859F400D11244093BC218091C221509130
:1005A000C32160E1869F500D11245093BD2180919D
:1005B000C4216091C52170E1879F600D1124609373
:1005C000BE21822F892783278427852768132DCF73
:1005D000509378214093792130937A2120937B2185
:1005E00090937C21A0909921B0909A21C0909B215A
:1005F000D0909C21E0909D21F0909E2100919F2120
:100600001091A0219501A601B701C801A0E00E94A8
:10061000AE15D1F52091A1213091A2214091A321C5
:100620005091A4216091A5217091A6218091A721CC
:100630009091A8210E94AE1539F52091A921309101
:10064000AA214091AB215091AC216091AD217091D4
:10065000AE218091AF219091B0210E94AE15A1F4FE
:100660002091B1213091B2214091B3215091B42118
:100670006091B5217091B6218091B7219091B821F8
:100680000E94AE1509F460C0809078219090792185
:10069000D0917A21C0917B21B0917C21A0917D21C4
:1006A000F0917E21E0917F219501A601B701C8015B
:1006B0005401CD2EDC2EEB2EFA2E0F2F1E2F0E9472
:1006C000A51509F441C0A090A121B090A221C0902D
:1006D000A321D090A421E090A521F090A621009123
:1006E000A7211091A82194014D2F5C2F6B2F7A2FF9
:1006F0008F2F9E2F0E94A51539F1A090A921B090AF
:10070000AA21C090AB21D090AC21E090AD21F09017
:10071000AE210091AF211091B0210E94A515A1F04A
:10072000A090B121B090B221C090B321D090B4215B
:10073000E090B521F090B6210091B7211091B82139
:100740000E94A51509F071CE60E080E20E940C0EB7
:1007500081E08093FA2080918921DF91CF911F91D0
:100760000F91FF90EF90DF90CF90BF90AF909F9050
:100770008F900C949B0187538093C521E6CE8753BD
:100780008093C421DACE87538093C321CECE875382
:100790008093C221C2CE87538093C121B6CE8753A6
:1007A0008093C021AACE87538093BF219ECE8753CA
:1007B0008093BE2192CE87538093BD2186CE8753EE
:1007C0008093BC217ACE87538093BA2166CE87531B
:1007D0008093BB216ACE08950895089508950895E1
:1007E000089508958091032190910421009741F08C
:1007F00001978093032190930421892B09F454C01D
:100800008091012190910221009701F12091FD201A
:100810003091FE20215031092093FD203093FE209D
:10082000232B69F420E120936706209193213091D6
:100830009421369527952093FD203093FE20019733
:100840008093012190930221892B51F18091FF2007
:1008500090910021009719F12091FB203091FC200C
:10086000215031092093FB203093FC20232B69F485
:1008700022E02093470620919521309196213695CC
:1008800027952093FB203093FC2001978093FF2035
:1008900090930021892B19F482E0809346060895F5
:1008A00080E180936606D2CF81E080937421A8CF47
:1008B00008950895089508950895089590EE980F65
:1008C000913140F490E08097FC01E857FF4D208182
:1008D000261711F080E00895880F991FFC01EE5D46
:1008E000FF4D0190F081E02D099581E0089590EE93
:1008F000980F913148F4E82FF0E0B097DF01A85746
:10090000BF4D9C91961711F080E00895EE0FFF1FE8
:10091000DF01AA59BF4D8D919C9182179307A1F7D2
:10092000E050F04E0190F081E02DCA01099480E082
:100930000895FC0180818093882181E00895FC0165
:1009400080818093892181E00895FC0180819181DB
:1009500080938B2190938C2181E00895FC0180810C
:10096000918180938D2190938E2181E00895FC01E7
:100970008081918180938F219093902181E00895CF
:10098000FC01808191818230910530F08093932128
:100990009093942181E0089580E00895FC01808186
:1009A00091818230910530F080939521909396212A
:1009B00081E0089580E00895FC0180818093972173
:1009C00081E00895FC0180818093982181E0089561
:1009D000FC0170816181528143813481258196813E
:1009E0008781E8E7F1E271A362A353A344A335A38F
:1009F00026A397A380A781E00895FC0170816181FF
:100A0000528143813481258196818781E8E7F1E233
:100A100071A762A753A744A735A726A797A780ABBE
:100A200081E00895FC0170816181528143813481AC
:100A3000258196818781E8E7F1E271AB62AB53AB28
:100A400044AB35AB26AB97AB80AF81E008950895FA
:100A5000FC017081618152814381348125819681BD
:100A60008781E1EBF1E270836183528343833483B6
:100A700025839683878381E00895CF93FC01C0810D
:100A80008C2F0E949B01C0938A2181E0CF91089511
:100A9000EF92FF920F931F93CF93DF93FC01C081DE
:100AA000D181CE01885C9109813D994340F080E07D
:100AB000DF91CF911F910F91FF90EF900895BE01AC
:100AC00080E090E00E948F069B01AC0185E7E82E54
:100AD00081E2F82E07E711E260E078E488EE91E029
:100AE0000E94FC07C0939121D093922181E0DF9175
:100AF000CF911F910F91FF90EF90089580E008959E
:100B000008950895089508950895089508950895FD
:100B100008950895089508950895089508950895ED
:100B20000F9320E040E063E080E496E00E948007BD
:100B300000E028E040E061E080E496E00E94AD073C
:100B400021E040E060E080E696E00E94950721E029
:100B500040E064E080E696E00E94950721E040E0F6
:100B600061E080E496E00E949507E0E6F6E081E02F
:100B7000868380E1868382E0809346060F91089504
:100B800018958091480683FF03C00E94BE0D2AC0BD
:100B90008091FA20882331F11092FA2080917821F7
:100BA00080938021809179218093812180917A2185
:100BB0008093822180917B218093832180917C216D
:100BC0008093842180917D218093852180917E2155
:100BD0008093862180917F218093872161E081E24B
:100BE0000E940C0E18951092052180E499E00E9455
:100BF000AD08189581E080936506189581E0809393
:100C00006606C0917421C13031F480E098E00E9402
:100C1000F707C093660618950E941D018091A200F7
:100C200087688093A2007894FFCFCF93DF9300D0A2
:100C3000CDB7DEB789839A8383E08093A509898144
:100C40008093A6098A818F7090E16902B001112416
:100C5000682B6093A709442329F08091A40984603C
:100C60008093A40988E08093650620E040E063E07B
:100C700080E696E00E94950720E040E062E080E692
:100C800096E00E9480070F900F90DF91CF9108951A
:100C9000E0EAF9E084818861848380EE8183838146
:100CA00080618383089580E480936506E091072145
:100CB00081E08E0F80930721F0E0E750FE4D908198
:100CC0009093A009883019F41092072180E0909148
:100CD0000621981305C08091A3098C7F8093A309F6
:100CE00080E48093660618958091680687FF06C0A9
:100CF0008091A3098C7F8093A3090BC09091072159
:100D000080910621981729F08091A3098160809332
:100D1000A30918958091A0090E94FA011895E894FA
:100D200009C097FB3EF490958095709561957F4F33
:100D30008F4F9F4F9923A9F0F92F96E9BB279395E1
:100D4000F695879577956795B795F111F8CFFAF4F1
:100D5000BB0F11F460FF1BC06F5F7F4F8F4F9F4F22
:100D600016C0882311F096E911C0772321F09EE880
:100D7000872F762F05C0662371F096E8862F70E0E6
:100D800060E02AF09A95660F771F881FDAF7880FC0
:100D90009695879597F90895222309F45BC030E270
:100DA0003093520038E0309350003091510033FFBF
:100DB000FCCF611538E4730738EE830731E0930701
:100DC00009F482C0611534E2730734EF830791059B
:100DD00009F47CC0611532E173073AE78307910596
:100DE00009F44BC0611539E073073DE383079105B2
:100DF00009F46EC0603834E873073EE1830791055B
:100E000009F460C0603432E473073FE08307910562
:100E100009F462C0603231EA730737E08307910555
:100E200009F458C0603930ED730733E0830791054A
:100E300009F454C0683438EE730731E08307910534
:100E400009F44EC06432744F8105910509F04AC01F
:100E500084E414C032E2309352003AE03093500000
:100E60003091510031FFFCCF3091510033FDA1CFC3
:100E70003091510033FFF8CF9CCF8CE098ED94BFB8
:100E8000222399F023E02093400094BF80934100F7
:100E9000442329F088ED84BF81E08093420088EDEF
:100EA00084BF81E080938000089521E0209340007A
:100EB00094BF8093410094BF82E0809356002093BA
:100EC0006000E6CF8CE1DACF80E0D8CF84E0D6CFE7
:100ED00084E1D4CF8CE2D2CF84E2D0CF84E3CECFF2
:100EE0008CE3CCCF80E0089588ED84BF81E08093CF
:100EF0008000089588ED84BF83E080938000FFCF59
:100F0000FC01308181E090E0062E01C0880F0A9438
:100F1000EAF78095832380837096E60FF11D808128
:100F2000422B807C482B40830895FC01308181E076
:100F300090E0062E01C0880F0A94EAF7382B308320
:100F40007096E60FF11D8081807C842B80832111B7
:100F500003C080818760808308950F93FC013185F1
:100F6000842F90E0880F991FA3E0B0E0082E01C005
:100F7000AA0F0A94EAF7A095A323082E01C0660FD2
:100F80000A94EAF7A62BA18741110FC00023A9F00C
:100F90002287248581E090E0042E01C0880F0A9406
:100FA000EAF7282B24870F910895413091F701111A
:100FB00008C08385822B8387ECCF8285822B828732
:100FC000E8CF2387E6CFEF920F93FC0110828CE0ED
:100FD00081874150510946A357A320A731A7068313
:100FE000E78283E1818360830F91EF900895FC0194
:100FF00010822CE0218708954F925F926F927F922A
:101000008F929F92AF92BF92EF92FF920F931F9396
:101010002B013C0149015A0120E030E0A901C50142
:10102000B4010E947614882309F442C0C301B201BE
:101030000E948F06A50194010E947B1420E030E0FD
:1010400040E05FE30E940A140E94ED1461157105EF
:1010500021E082079105A0F421E0F8012083F70147
:101060006083718381E01F910F91FF90EF90BF909B
:10107000AF909F908F907F906F905F904F9008956A
:10108000969587957795679561157105F1E08F07BE
:10109000910580F09695879577956795611571050F
:1010A000F1E08F07910550F423E0F8012083D7CFBA
:1010B00080E0D9CF22E0F8012083D1CF96958795A3
:1010C0007795679561157105F1E08F07910588F0B7
:1010D000A3E09695879577956795AA95D1F76115C1
:1010E0007105F1E08F07910540F425E0F8012083B8
:1010F000B6CF24E0F8012083B2CF969587957795F7
:101100006795969587957795679561157105F1E0D7
:101110008F07910520F426E0F8012083A0CF969553
:1011200087957795679596958795779567956115D6
:101130007105F1E08F07910508F0BACF27E0F801BB
:1011400020838DCFFC0110828CE0818741505109B2
:1011500046A357A3268360830895FC0110822CE0E8
:10116000218708952091CF0127FDFCCF8093C001F6
:101170009093C1011092C20186E08093CA0188ED6C
:1011800084BF81E08093CB018091C40108952091B8
:10119000CF0127FDFCCF2091CF0121FF08C026E31E
:1011A0002093CA0128ED24BF21E02093CB0123E343
:1011B0002093CA018093C0019093C1011092C20193
:1011C0006093C40185E38093CA0188ED84BF81E008
:1011D0008093CB010895FF920F931F93CF93DF93DA
:1011E0008C01C7E0D0E0F12C09C0F1100CC0CE0199
:1011F0000E94C7082196C032D10579F0F8016191AB
:101200008F016111F2CF60E0CE010E94C708FF2478
:10121000F3942196C032D10589F7DF91CF911F91C8
:101220000F91FF900895CF93962F10926D218032E9
:1012300008F47FC0282F30E020523109F901E85727
:10124000FF4D5081220F331FF901EA59FF4DC08134
:10125000F901EC5BFF4D2081318120930E21309309
:101260000F2190930122252F2F702C9FC02D112428
:10127000EAE0EC0FE0930222809303222FEF209309
:10128000042250615093052241116BC080910A21C4
:1012900090910B21A0910C21B0910D2180930622F9
:1012A00090930722A0930822B0930922209108214D
:1012B0003091092120930A2230930B228E2F90E047
:1012C0008E3F9105A4F520910E2130910F2140E031
:1012D000842F90E0F901E80FF91F5081FC01E45FD1
:1012E000FD4D50834F5F4C13F3CF209102222E5FB0
:1012F00030E021503109121613060CF09FC080E037
:1013000090E040E050E0FC01EF5FFD4D8081580F20
:101310004F5F842F90E082179307ACF3F901EF5FE2
:10132000FD4D508380919920813009F46BC0CF919D
:1013300008958F30E0F7282F30E0F901E651FF4D96
:101340005081220F331FF901E453FF4DC081F90191
:10135000E255FF4D2081318120930E2130930F21E2
:1013600080CF20914C0840912221509123216091FF
:1013700024217091252120FF21C04F5F5F4F6F4FC7
:101380007F4F409306225093072260930822709368
:101390000922209160083091610820930A2230933D
:1013A0000B22883009F08ACF933009F087CF109252
:1013B0000A2210920B22E091022280CF4093062253
:1013C00050930722609308227093092220916008AD
:1013D0003091610820930A2230930B22F09113215F
:1013E000F03DF9F62F303105E0F64F5F5F4F6F4F5C
:1013F0007F4F4093062250930722609308227093F8
:101400000922CFCF83E88093A200C091A30A9091D4
:10141000A30A9C7F9093A30A609102226E5F81E0F1
:1014200092E20E9427129091A30A8C2F8370892B3D
:101430008093A30A87E88093A20079CF50E06ECF13
:10144000CF93E091042B2E2F30E024303105BCF0F7
:1014500090E020E030E0F901E85FF44D4081F901CF
:10146000E25FF44D40839F5F292F30E0E091042B31
:101470004E2F50E0435051092417350764F38093F1
:10148000032BEA5FE093042B8091072B806180930C
:10149000072B80914C0880FF5FC0809122219091A2
:1014A0002321A0912421B0912521AC01BD014F5FE2
:1014B0005F4F6F4F7F4F4093082B5093092B6093E2
:1014C0000A2B70930B2B20916008309161082093B8
:1014D0000C2B30930D2B20916D212223B9F02091FC
:1014E0004C0820FF69C00196A11DB11D8093082BF7
:1014F0009093092BA0930A2BB0930B2B809160083B
:101500009091610880930C2B90930D2BF0E0EC5F91
:10151000F44D10826091042B40E0262F30E080E0F3
:1015200090E0F901EC5FF44DDC01AD5FB44D20813A
:101530008C91280F20834F5F6091042B262F30E081
:10154000842F90E02817390764F780919920813023
:1015500009F457C0CF9108958091222190912321C1
:10156000A0912421B09125218093082B9093092BE1
:10157000A0930A2BB0930B2B209160083091610847
:1015800020930C2B30930D2B40911321403D09F0FB
:10159000A2CF2F30310508F09ECFAC01BD014F5FC7
:1015A0005F4F6F4F7F4F4093082B5093092B6093F1
:1015B0000A2B70930B2B8FCF8093082B9093092BC2
:1015C000A0930A2BB0930B2B2091600830916108F7
:1015D00020930C2B30930D2B40911321403D09F0AB
:1015E00095CF2F30310508F091CF0196A11DB11D87
:1015F0008093082B9093092BA0930A2BB0930B2B6D
:1016000085CF83E88093A200C091A30A9091A30A9A
:101610009C7F9093A30A6E5F83E09BE20E94271257
:101620009091A30A8C2F8370892B8093A30A87E85B
:101630008093A200CF9108953F924F925F926F9254
:101640007F928F929F92AF92BF92CF92DF92EF9252
:10165000FF920F931F93CF93DF93CDB7DEB73C017B
:10166000962E142FF22E4C885D880E94740721E07C
:1016700041E060E078E488EE91E00E94CC0681E0F1
:10168000809348006092192170921A2190921B2138
:1016900010931C21E0921D2180931E2189E08093EC
:1016A0001F21F092202100932121109222211092DB
:1016B000232110922421109225211092262110928C
:1016C000272182E090E00E94B208382E83E090E06B
:1016D0000E94B208982E8FEF981609F4D9C0F3141F
:1016E00009F4A8C06FED80E090E00E94C7086F2D5C
:1016F00082E090E00E94C70861E083E090E00E94F1
:10170000C7080E94520180E090E00E94B2088E3E1D
:1017100009F49CC080E68093282180E480932921ED
:101720000E945C010E949501A0921721B09218219D
:10173000C0921521D09216218092142187E090E06A
:101740000E94B2088F3F09F4E1C00AE211E2F6EF0D
:10175000EF2EFF24FA94C701895191427C01C70101
:10176000800F911F0E94B208F80181938F01F1E26E
:1017700003341F07A1F789E1EAE2F1E2A7E4B1E24D
:1017800001900D928A95E1F784E090E00E94B20802
:10179000082F10E0009343211093442185E090E04E
:1017A0000E94B208302F2227282B20934321309308
:1017B000442121E042E15AE767E080E498E00E949A
:1017C000A208E091132181E08E0F80931321F0E0B5
:1017D000EA55FF4D808190E00197809368089093CF
:1017E000690811E01093470820E040E060E080EED7
:1017F00097E00E9495071093E50740E060E081E0E4
:1018000090E00E9431110E948F1182E291E2DF91FB
:10181000CF911F910F91FF90EF90DF90CF90BF90ED
:10182000AF909F908F907F906F905F904F903F9080
:101830000C944A1391E0991255CF0E94520180E016
:1018400090E00E94B2088E3E09F064CF81E090E003
:101850000E94B20880932821A114B10499F0760166
:1018600085010C0D1D1DA0E26A2E712CC3010E9482
:10187000B208F70181937F01FFEF6F1A7F0AE0162C
:10188000F106A1F780E8809329210E9495014CCFB1
:101890006F2D82E090E00E94C70861E083E090E055
:1018A0000E94C70882E090E00E94B208382E83E0D0
:1018B00090E00E94B208982E8201B7E06B2E712C46
:1018C000E12C0CC0E1100FC0C3010E94C708FFEF5C
:1018D0006F1A7F0A80E26816710491F0F801619135
:1018E0008F016111EFCF60E0C3010E94C708EE24B1
:1018F000E394FFEF6F1A7F0A80E26816710471F7B4
:101900006FED80E090E00E94C708E9CE720107E029
:1019100010E0D12C0BC0D1100EC0C8010E94C70826
:101920000F5F1F4F0032110509F40FCFF7016191CE
:101930007F016111F0CF60E0C8010E94C708DD247B
:10194000D394EECF0E94440121E080E092EEA4E027
:10195000B0E00197A109B1090097A105B105C9F748
:101960002093E707F2CF8091222190912321A0912B
:101970002421B09125210196A11DB11D8093222122
:1019800090932321A0932421B093252180916B2152
:101990008F5F80936B218EE090E080936808909336
:1019A000690881E0809313210E94EE0380914C0826
:1019B000806180934C080E94F0030E94F2034091E2
:1019C000282147FD03C0842F8370B4C0842F837007
:1019D000813009F0AFC010926D2182E291E28093D4
:1019E0000E2190930F2183E0809301228EE080935B
:1019F000022288E0809303228FEF8093042284E107
:101A00008093052280914C0880FF18C0809122218C
:101A100090912321A0912421B09125210196A11D0F
:101A2000B11D8093062290930722A0930822B093C1
:101A30000922809160089091610826C0809122213E
:101A400090912321A0912421B091252180930622F9
:101A500090930722A0930822B09309222091600856
:101A60003091610850911321503D71F42F303105B0
:101A700058F40196A11DB11D809306229093072270
:101A8000A0930822B093092210920A2210920B22EE
:101A90008091222190912321A0912421B091252190
:101AA00080930C2290930D22A0930E22B0930F22CC
:101AB000209102222E5F30E02150310912161306C8
:101AC00084F450E060E080E090E0FC01EF5FFD4DC9
:101AD0008081680F5F5F852F90E082179307ACF3DA
:101AE00001C060E0F901EF5FFD4D608380919920B6
:101AF000813029F583E88093A200C091A30A9091D8
:101B0000A30A9C7F9093A30A609102226E5F81E0FA
:101B100092E20E9427129091A30A8C2F8370892B46
:101B20008093A30A87E88093A20040912821842F04
:101B3000837000C0882339F0813019F400C092E02E
:101B400003C091E001C094E080912221892321F01B
:101B500081E08093E60705C046FF03C081E08093E3
:101B6000E5070E94EF0380914C0884FF06C0809136
:101B70001221811102C00E94A20C189510926D21B1
:101B800080914C0880FF1CC08091222190912321DC
:101B9000A0912421B09125210196A11DB11D809312
:101BA0000A2190930B21A0930C21B0930D218091D9
:101BB000600890916108809308219093092108950D
:101BC0008091222190912321A0912421B09125215F
:101BD00080930A2190930B21A0930C21B0930D21A7
:101BE00020916008309161082093082130930921E9
:101BF00040911321403D09F008952F303105E0F761
:101C00000196A11DB11D80930A2190930B21A093F1
:101C10000C21B0930D21089590912821937091305B
:101C200009F00895462F63E00C941309CF92DF92D8
:101C3000FF920F931F93CF93DF9300D0CDB7DEB702
:101C40008F3040F4E82FF0E0DF01A651BF4D9C91AA
:101C5000961759F080E00F900F90DF91CF911F9170
:101C60000F91FF90DF90CF900895EE0FFF1FE45388
:101C7000FF4D608171816217730761F7883009F445
:101C800082C08A30E9F18B3021F18C3009F4A4C094
:101C90008D3001F7FA0180819181019609F4C4C069
:101CA000809146218823B1F2FA01608185E090E0BD
:101CB00049835A830E94C70849815A81FA01618188
:101CC00084E090E00E94C70883E08093122181E0C5
:101CD000C2CFFA018081813009F4BBC0823009F49F
:101CE000A7C0843009F4C8C0883089F76FEF87E057
:101CF00090E00E94C70883E08093122181E0ABCF7F
:101D0000FA01808186FD04C081E08093E60780812E
:101D100010912821837F80932821FA01808185FFFB
:101D200041C015FF78C083FF10C081E0809363211C
:101D3000109261218093622110926021809128216C
:101D4000877F80932821FA018081837079F4812F25
:101D5000837009F4BCCF1092632149835A830E9497
:101D6000EB0349815A81FA0180818370813029F126
:101D7000833009F0ACCF1370133009F4A8CF0E9460
:101D8000ED0381E068CFFA0180819181A281B38166
:101D90008093222190932321A0932421B093252185
:101DA00081E059CF15FFBFCF49835A830E949A0122
:101DB00049815A81FA018081B6CF812F83708130A9
:101DC00009F485CF49835A830E94EC0349815A81E3
:101DD000FA0180818370CCCF8A0187E0C82ED12C94
:101DE000F12C0DC0F11010C0C6010E94C708FFEF12
:101DF000CF1ADF0A20E2C216D10409F465CFF80138
:101E000061918F016111EECF60E0C6010E94C708A9
:101E1000FF24F394ECCF49835A830E9499014981AE
:101E20005A81FA0180817FCF81E08093462113CFD0
:101E300080E090E049835A830E94B20849815A8128
:101E40008E3E09F007CF83E080931221FA01808152
:101E500048CF87E491E249835A830E94EB086FEDF3
:101E600080E090E00E94C70883E0809312214981BE
:101E70005A81FA01808132CF6EEE80E090E0498392
:101E80005A830E94C7086091282181E090E00E9457
:101E9000C708809117219091182149815A81892B77
:101EA000D1F000E010E0E0911521F0911621E00F53
:101EB000F11F6081C801809649835A830E94C70838
:101EC0000F5F1F4F809117219091182149815A81EE
:101ED0000817190740F383E080931221FA018081EB
:101EE00003CF0E94EE038091680890916908E09109
:101EF000132121E02E0F20931321E770F0E0EA5523
:101F0000FF4D3081830F911D80936808909369087D
:101F100020FD2FC180919920813071F482E080935F
:101F2000850683E88093A2008091A30A8F7C80932A
:101F3000A30A87E88093A20080916A21811103C0DF
:101F4000809169210FC0815080936A21882319F004
:101F50008091692107C010926A2110926921109224
:101F60006421A5C0882309F4A2C0A0910123B091E7
:101F700002238091042B8F3F59F01091052B509133
:101F8000062B0091072B38E0E32E3BE2F32E0AC02C
:101F90001091072B5091082B0091092B2AE0E22E7B
:101FA0002BE2F22EFD01319681F090E040E020E03E
:101FB00030E0E901CD5FD44D2881420F9F5F292F8A
:101FC00030E02E173F07A8F301C040E0ED5FF44D6D
:101FD000908149136AC05F3F09F067C09091032B5D
:101FE0009130A9F51D31B0F41F3008F028C1E12F60
:101FF000F0E0E651FF4D9081091321C1193009F03D
:1020000019C1809160089091610880932621909376
:10201000272110C1602F812F0E945E0490912821FA
:1020200094FD43C0811103C08091042B06C041E0A0
:1020300061E0812F0E94130938C010926D2190E059
:10204000883F910594F589E00E94200A2EC0CD01B9
:102050000497202F2F70622F70E00E9491151D3180
:1020600038F49B01A701602F812F0E94160E06C035
:102070009B01A701602F812F0E9477049091282156
:1020800094FD13C0882331F041E062E0812F0E946B
:1020900013090BC010926D218091042B90E0883FB2
:1020A00091051CF48AE00E94200A10926921809117
:1020B0009920813009F05AC08091880680FF44C081
:1020C00080911021909111210196883B2BE092077D
:1020D00029F080931021909311213AC01092102181
:1020E0001092112180912821982F93709130D9F46A
:1020F00086FF9093E607982F907F9093282183FF87
:102100000BC01092612181E08093622110926021C6
:10211000892F877F80932821109263210E94EB03EF
:102120009091992001C091E010926721109268214E
:1021300010926521109266218091A30A8C7F809372
:10214000A30A913029F012C010921021109211218F
:1021500083E88093A2008091A30A80638093A30AFE
:1021600087E88093A20082E0809386060E94F103B4
:1021700002C00E94F20380911221882339F081501D
:1021800080931221811102C00E947A0780916221FE
:102190008823E1F08091132183708230B9F480911B
:1021A00060218F3060F4893009F04EC020916008C2
:1021B00030916108209326213093272145C08F5FFD
:1021C000809360218C3111F41092622180916321FF
:1021D000882311F1809113218370F1F480916121A2
:1021E000E82FF0E0E857FF4D6081805E0E945E04BA
:1021F000882339F08091612141E061E0805E0E9496
:102200001309809161218F5F809361219091142146
:10221000891302C0109263210E94EF0380914C0841
:1022200084FF06C080911221811102C00E94A20C7D
:10223000189511C08091282184FFF9CE36CF909156
:10224000282194FFFACE31CF41E061E00E941309CA
:1022500080916021B4CF8091282185FB882780F967
:102260000895FF920F931F93CF93DF9300D0CDB7C4
:10227000DEB789839A83F62E142F20E040E061E0D8
:1022800080E896E00E94950720E040E060E080E86A
:1022900096E00E94800701E021E040E063E080E8F2
:1022A00096E00E94AD0782E08093860683E08093EB
:1022B000A50A89818093A60A8F2D90E18902B00139
:1022C00011248A818F70862B8093A70A112329F00D
:1022D0008091A40A84608093A40A88E08093850694
:1022E00020E040E063E080E896E00E94950720E06F
:1022F00040E062E080E896E00E94800780918806D6
:1023000080FF05C08091A30A8C7F8093A30A0F9061
:102310000F90DF91CF911F910F91FF900895E0EA08
:10232000FAE084818861848380EE81838381806385
:10233000838308951F920F920FB60F9211242F934B
:102340003F934F935F936F937F938F939F93AF933D
:10235000BF93EF93FF930E945A042091672130911D
:102360006821C90101968093672190936821F90142
:10237000ED5FFC4D20812093A00A811528E0920793
:10238000F9F020916521309166212817390729F449
:102390008091A30A8C7F8093A30A0E945B04FF9123
:1023A000EF91BF91AF919F918F917F916F915F91CD
:1023B0004F913F912F910F900FBE0F901F90189546
:1023C000109267211092682180E090E0DACF1F928E
:1023D0000F920FB60F9211242F933F934F935F9359
:1023E0006F937F938F939F93AF93BF93EF93FF93DD
:1023F0000E945C048091880680FD23C020916721A3
:1024000030916821809165219091662128173907C4
:1024100029F08091A30A83608093A30A0E945D043F
:10242000FF91EF91BF91AF919F918F917F916F91AC
:102430005F914F913F912F910F900FBE0F901F9082
:1024400018958091A30A8C7F8093A30AE7CFBF924F
:10245000CF92DF92EF92FF920F931F93CF93DF9370
:102460006C01B62E8091880680FD05C08091A30A7C
:1024700083608093A30A0091652110916621C0E0DA
:10248000D8E0C01BD10BEB2CF12CCE15DF0560F191
:10249000A701B601C8018D5F9C4D0E94BA158091BD
:1024A000672190916821E00EF11EE0926521F09283
:1024B0006621E11428E0F20609F448C0081719075C
:1024C000B8F5E816F906A0F18FEFE81AF80AE092DD
:1024D0006721F0926821E11428E0F20649F5109294
:1024E00067211092682124C0AE01B601C8018D5F3A
:1024F0009C4D0E94BA15BC1AEB2CF12CBE016C0D40
:102500007D1DA70183E093E20E94BA1580916721A7
:1025100090916821E0926521F092662108171907D1
:1025200088F42FEFE21AF20AE0926721F092682114
:10253000DF91CF911F910F91FF90EF90DF90CF909F
:10254000BF900895E816F90660F7F2CF1092652162
:1025500010926621892B61F781E090E080936721DA
:1025600090936821E5CF1F920F920FB60F9211241E
:102570002F933F934F935F936F937F938F939F938B
:10258000AF93BF93EF93FF930E9458049091A00ADA
:10259000E091642181E08E0F80936421F0E0ED5F93
:1025A000F44D90838130E9F0843019F190E020916E
:1025B0000123309102238217930749F10E945904A5
:1025C000FF91EF91BF91AF919F918F917F916F910B
:1025D0005F914F913F912F910F900FBE0F901F90E1
:1025E00018958091032B81508230D0F11092642194
:1025F000E5CF8091042B8F3F01F190E08E3F910554
:10260000A9F302968093012390930223D7CF2091C0
:102610009920213061F12091042B2F3F29F122E0F4
:1026200030E0821B930B809301239093022310923E
:10263000642181E080936921C1CF8091042B909126
:10264000052B04968F3F910509F080F68091052BAC
:102650009091062B04968093012390930223AECF92
:1026600082E380936A21AACF24E030E0DACF82E0CF
:102670008093850683E88093A2008091A30A8F7CD3
:102680008093A30A87E88093A20080910123909110
:102690000223C1CFCF93DF9300D0CDB7DEB723E1C4
:1026A00030E029833A8380936E2190936F2183E0F9
:1026B0008093A50889818093A6088A818F70809372
:1026C000A70820E048E162E080E496E00E948007ED
:1026D00080E18093A408E3EAF8E08081806380834E
:1026E0000F900F90DF91CF9108951F920F920FB628
:1026F0000F9211242F938F939F93AF93BF93EF93D8
:10270000FF938091A0088A3AE9F18F3A09F449C011
:1027100090916C21923009F448C008F472C0943052
:1027200009F44FC008F447C0953079F580937321C0
:1027300010926C2180916B218A3008F448C082EF9E
:1027400099E7809360089093610881E09AE780930D
:1027500068089093690881E080936D2126E02093BA
:102760009A20E0916E21F0916F21809170219091DB
:102770007121A0917221B091732180839183A283F2
:10278000B38303C081E080936C21FF91EF91BF91EF
:10279000AF919F918F912F910F900FBE0F901F902F
:1027A000189582E080936C21F0CF8093702183E0B4
:1027B00080936C21EACF8093712184E080936C2117
:1027C000E4CF8093722185E080936C21DECF10925C
:1027D0006B2120919A2089EF99E7821B91098093C0
:1027E00060089093610881E09AE78093680890936D
:1027F000690881E080936D21222309F4B2CF215032
:10280000AECF992319F0913009F0BFCF10926C210F
:10281000BCCF5058BB27AA270E9421140C945715EF
:102820000E94491538F00E94501520F039F49F3F5E
:1028300019F426F40C9446150EF4E095E7FB0C947D
:102840004015E92F0E94681558F3BA1762077307FD
:102850008407950720F079F4A6F50C948A150EF4F8
:10286000E0950B2EBA2FA02D0B01B90190010C01A0
:10287000CA01A0011124FF27591B99F0593F50F4B8
:10288000503E68F11A16F040A22F232F342F442710
:10289000585FF3CF469537952795A795F040539508
:1028A000C9F77EF41F16BA0B620B730B840BBAF0D8
:1028B0009150A1F0FF0FBB1F661F771F881FC2F743
:1028C0000EC0BA0F621F731F841F48F48795779557
:1028D0006795B795F7959E3F08F0B0CF9395880F11
:1028E00008F09927EE0F9795879508950E941C157B
:1028F00008F481E008950E948F140C9457150E94EB
:10290000501558F00E94491540F029F45F3F29F016
:102910000C94401551110C948B150C9446150E9483
:10292000681568F39923B1F3552391F3951B550B63
:10293000BB27AA2762177307840738F09F5F5F4F92
:10294000220F331F441FAA1FA9F335D00E2E3AF0D1
:10295000E0E832D091505040E695001CCAF72BD0E9
:10296000FE2F29D0660F771F881FBB1F261737073A
:102970004807AB07B0E809F0BB0B802DBF01FF276C
:1029800093585F4F3AF09E3F510578F00C944015F4
:102990000C948B155F3FE4F3983ED4F386957795BE
:1029A0006795B795F7959F5FC9F7880F911D969525
:1029B000879597F90895E1E0660F771F881FBB1F81
:1029C000621773078407BA0720F0621B730B840B2E
:1029D000BA0BEE1F88F7E09508950E94701588F0F5
:1029E0009F5798F0B92F9927B751B0F0E1F0660FD3
:1029F000771F881F991F1AF0BA95C9F714C0B13014
:102A000091F00E948A15B1E008950C948A15672F01
:102A1000782F8827B85F39F0B93FCCF38695779542
:102A20006795B395D9F73EF490958095709561952B
:102A30007F4F8F4F9F4F0895990F0008550FAA0B96
:102A4000E0E8FEEF16161706E807F907C0F01216C1
:102A50001306E407F50798F0621B730B840B950BC4
:102A600039F40A2661F0232B242B252B21F4089519
:102A70000A2609F4A140A6958FEF811D811D0895B6
:102A800097F99F6780E870E060E008959FEF80EC21
:102A9000089500240A9416161706180609060895C4
:102AA00000240A9412161306140605060895092E2A
:102AB0000394000C11F4882352F0BB0F40F4BF2B99
:102AC00011F460FF04C06F5F7F4F8F4F9F4F0895D9
:102AD00057FD9058440F551F59F05F3F71F04795CF
:102AE000880F97FB991F61F09F3F79F087950895B4
:102AF000121613061406551FF2CF4695F1DF08C0D3
:102B0000161617061806991FF1CF869571056105EF
:102B100008940895E894BB2766277727CB0197F997
:102B20000895AA1BBB1B51E107C0AA1FBB1FA61714
:102B3000B70710F0A61BB70B881F991F5A95A9F766
:102B400080959095BC01CD0108952A153B054C0553
:102B50005D056E057F058007910708950024A7FD98
:102B600000942A1730054005500560057005800562
:102B700090050895FB01DC0102C001900D924150C7
:0A2B80005040D8F70895F894FFCFF5
:102B8A007E05970499049F043D05A504AE04B70485
:102B9A004805C004CE04DC04E204E804FD0412057E
:102BAA0028058F058005810582058305840585052D
:102BBA0086058705880589058A058B058C058D0597
:102BCA008E05270578218021882189218A218B2158
:102BDA008D218F2191219321952197219821992146
:102BEA00A121A921B1210100010001000100010078
:102BFA0001000100010001000100010001000100C3
:102C0A00010001000100010008080101010202029D
:102C1A0002020201010808080801075266696452A3
:102C2A006561646572000F10100F100F10101921E2
:102C3A001B211C211D211E211F212021212122218E
:102C4A002621282129212A21432145210100010089
:102C5A000100010001000100010001000100010062
:102C6A000100010019000100010002010101010136
:0A2C7A000101040201010102010042
:00000001FF
