:100000000C94FE000C941B010C9422050C941B0113
:100010000C941B010C941B010C941B010C941B01F0
:100020000C941B010C941B010C941B010C941B01E0
:100030000C941B010C941B010C942A050C941B01BD
:100040000C942E050C941B010C941B010C941B01A9
:100050000C94630B0C941B010C94CE0D0C941B019F
:100060000C941B010C941B010C941B010C941B01A0
:100070000C941B010C941B010C941B010C941B0190
:100080000C941B010C941B010C941B010C941B0180
:100090000C941B010C941B010C941B010C941B0170
:1000A0000C941B010C941B010C941B010C94441028
:1000B0000C941B010C941B010C941B010C941B0150
:1000C0000C941B010C941B010C941B010C941B0140
:1000D0000C941B010C941B010C941B010C941B0130
:1000E0000C941B010C941B010C9410110C94F70F31
:1000F0000C941B010C941B010C941B010C941B0110
:100100000C9466050C941B010C9421050C941B01A6
:100110000C941B010C941B010C941B010C941B01EF
:100120000C941B010C941B010C941B010C941B01DF
:100130000C941B010C9407120C941B010C941B01D2
:100140000C941B010C941B010C941B010C942305B3
:100150000C941B010C941B010C941B010C941B01AF
:100160000C947C050C9445050C941B010C941B010C
:100170000C941B010C941B010C941B010C941B018F
:100180000C941B010C941B010C941B010C941B017F
:100190000C941B010C941B010C941B010C941B016F
:1001A0000C941B010C941B010C941B010C941B015F
:1001B0000C941B010C941B010C941B010C941B014F
:1001C0000C941B010C941B010C941B010C941B013F
:1001D0000C941B010C941B010C941B010C941B012F
:1001E0000C941B010C941B010C941B010C941B011F
:1001F0000C941B010C941B010C941B0111241FBEB9
:10020000CFEFCDBFD7E2DEBF10E2A0E0B0E2E8E87A
:10021000F8E202C005900D92A43FB107D9F725E29C
:10022000A4EFB0E201C01D92AB3FB207E1F70E941C
:100230003C050C9442140C9400008F92AF92BF9234
:10024000CF92DF92EF920F938AE990E29F938F9380
:1002500081E1882E9AE3A92EB12C27E7C22E21E254
:10026000D22EE12C00E021E040E061E08EE298E057
:100270000E94CB090F900F900F91EF90DF90CF90DD
:10028000BF90AF908F90089508950C94E304E7E732
:10029000F1E281E0828788EE93E084879587868704
:1002A0009787808B918B828B938B84E690E0848BF5
:1002B000958B868B978B128E138E148E158E168EC1
:1002C000178E10A211A212A213A214A215A216A296
:1002D00017A210A611A612A613A614A615A616A656
:1002E00017A610AA11AA12AA13AA14AA15AA16AA26
:1002F00017AA10AE11AE089589E891E20C949D04FE
:1003000008950895EF920F93CF93DF9380FF63C01A
:100310008091832190918421029720F14091742152
:10032000509175219A0136952795EE24E39401E0CA
:100330006091762180E098E00E94E0068091832120
:10034000909184218093FC209093FD201092FE20B8
:100350001092FF2010920021109201211092022190
:10036000109203210E94880F882381F180918521BA
:10037000909186218230910588F020E120936506D6
:100380008093FA209093FB2080918B2190918C2177
:10039000969587958093F6209093F72080918721FA
:1003A000909188218230910588F024E020934506C1
:1003B0008093F8209093F92080918D2190918E2147
:1003C000969587958093F4209093F520DF91CF91B7
:1003D0000F91EF900895DF91CF910F91EF900C94D2
:1003E000880F7F928F929F92AF92BF92CF92DF92AF
:1003F000EF92FF920F931F93CF93DF93809104218D
:10040000882399F08F5F8830E9F080930421DF9191
:10041000CF911F910F91FF90EF90DF90CF90BF9001
:10042000AF909F908F907F90089521E041E752E038
:1004300067E080E499E00E949F07809104218F5F2C
:10044000883019F71092042180E098E00E94F406A9
:100450009090B121D091B221E92DED27C091B32127
:10046000EC27B091B421EB27F091B521EF278091D3
:10047000B621E813CCCF7090B7218090B82190922C
:100480007721D0937821C0937921B0937A21F0938A
:100490007B21E0937C2170927D2180927E21A0902F
:1004A0009121B0909221C0909321D0909421E0901E
:1004B0009521F09096210091972110919821950116
:1004C000A601B701C801A0E00E942D1409F451C093
:1004D000292D3D2F4C2F5B2F6F2F7E2F872D982D91
:1004E0000E94241409F481C0A0909921B0909A210F
:1004F000C0909B21D0909C21E0909D21F0909E2166
:1005000000919F211091A021292D3D2F4C2F5B2F71
:100510006F2F7E2F872D982D0E94241409F465C01B
:10052000A090A121B090A221C090A321D090A4219D
:10053000E090A521F090A6210091A7211091A8217B
:100540000E94241409F451C0A090A921B090AA21BE
:10055000C090AB21D090AC21E090AD21F090AE21C5
:100560000091AF211091B0210E94241409F04FCFC7
:100570003CC02091992130919A2140919B2150912A
:100580009C2160919D2170919E2180919F2190914D
:10059000A0210E942D1409F09BCF2091A121309120
:1005A000A2214091A3215091A4216091A521709195
:1005B000A6218091A7219091A8210E942D1409F0D5
:1005C00087CF2091A9213091AA214091AB21509150
:1005D000AC216091AD217091AE218091AF219091BD
:1005E000B0210E942D1409F073CF61E080E20E94D7
:1005F000690C80918121DF91CF911F910F91FF9024
:10060000EF90DF90CF90BF90AF909F908F907F90B2
:100610000C94820108950895089508950895089509
:100620000895FF920F931F93CF93DF93F090FC20D8
:100630000091FD201091FE20D091FF20C09100215B
:10064000B0910121F0910221E09103212F2D302F53
:10065000412F5D2F6C2F7B2F8F2F9E2FA0E00E94AC
:100660002D14C1F0AFEF0E9418142093FC2030939A
:10067000FD204093FE205093FF2060930021709353
:1006800001218093022190930321A0E00E942D1468
:1006900009F459C08091FA209091FB20009701F154
:1006A0002091F6203091F720215031092093F62037
:1006B0003093F720232B69F420E1209367062091E3
:1006C0008B2130918C21369527952093F6203093FD
:1006D000F72001978093FA209093FB20892B79F1E2
:1006E0008091F8209091F920009719F12091F42041
:1006F0003091F520215031092093F4203093F520DA
:10070000232B69F424E02093470620918D2130911A
:100710008E21369527952093F4203093F52001976C
:100720008093F8209093F920892B19F484E080932A
:100730004606DF91CF911F910F91FF90089580E1C0
:1007400080936606CDCF81E080937321A3CF089577
:100750000895089508950895089590EE980F9131A1
:1007600040F490E08097FC01E857FF4D2081261768
:1007700011F080E00895880F991FFC01EE5DFF4D98
:100780000190F081E02D099581E0089590EE980F99
:10079000913148F4E82FF0E0B097DF01A857BF4D42
:1007A0009C91961711F080E00895EE0FFF1FDF0176
:1007B000AA59BF4D8D919C9182179307A1F7E050E4
:1007C000F04E0190F081E02DCA01099480E0089577
:1007D000FC01808180937F2181E00895FC0180816C
:1007E0008093802181E00895FC01808180938121A4
:1007F00081E00895FC018081918180938321909311
:10080000842181E00895FC0180819181809385217C
:100810009093862181E00895FC01808191818093ED
:1008200087219093882181E00895FC018081918146
:100830008230910530F080938B2190938C2181E060
:10084000089580E00895FC018081918182309105B6
:1008500030F080938D2190938E2181E0089580E087
:100860000895FC01808180938F2181E00895FC012F
:1008700080818093902181E00895FC0170816181E5
:10088000528143813481258196818781E7E7F1E2B6
:10089000728F638F548F458F368F278F90A381A3DC
:1008A00081E00895FC01708161815281438134812E
:1008B000258196818781E7E7F1E272A363A354A3C0
:1008C00045A336A327A390A781A781E00895FC0143
:1008D0007081618152814381348125819681878134
:1008E000E7E7F1E272A763A754A745A736A727A7B2
:1008F00090AB81AB81E008950895FC017081618126
:10090000528143813481258196818781E7E7F1E235
:1009100072AB63AB54AB45AB36AB27AB90AF81AF9B
:1009200081E00895CF93FC01C0818C2F0E94820149
:10093000C093822181E0CF910895EF92FF920F93AF
:100940001F93CF93DF93FC01C081D181CE01885CDE
:100950009109813D994340F080E0DF91CF911F9153
:100960000F91FF90EF900895BE0180E090E00E940B
:1009700081059B01AC0184E7E82E81E2F82E06E7B1
:1009800011E260E078E488EE91E00E94F906C093FD
:100990008921D0938A2181E0DF91CF911F910F911E
:1009A000FF90EF900895089508950895089508958B
:1009B000089508950895089508950895089508954F
:1009C0000895089508950F9320E048E164E080E0E1
:1009D00096E00E94720620E040E063E080E496E04A
:1009E0000E94720600E020E140E061E080E096E0D5
:1009F0000E949F0628E040E061E080E496E00E94CB
:100A00009F0621E040E060E080E696E00E948706D5
:100A100021E040E064E080E696E00E94870621E065
:100A200040E062E080E496E00E948706E0E6F6E0BF
:100A300081E0868380E1868384E0809346060F917F
:100A40000895189518951092042180E098E00E946E
:100A5000F406189581E080936506189581E08093EF
:100A60006606C0917321C13031F480E098E00E94A5
:100A7000F406C093660618950E941D018091A2009D
:100A800087688093A2007894FFCF80E48093650606
:100A9000E091062181E08E0F80930621F0E0EF5077
:100AA000FE4D90819093A009883019F41092062190
:100AB00080E090910521981305C08091A3098C7F57
:100AC0008093A30980E48093660618958091680658
:100AD00087FF06C08091A3098C7F8093A3090BC078
:100AE0009091062180910521981729F08091A30902
:100AF00081608093A30918958091A0090E94F1015B
:100B00001895E89409C097FB3EF4909580957095F0
:100B100061957F4F8F4F9F4F9923A9F0F92F96E949
:100B2000BB279395F695879577956795B795F111BE
:100B3000F8CFFAF4BB0F11F460FF1BC06F5F7F4F5B
:100B40008F4F9F4F16C0882311F096E911C077236D
:100B500021F09EE8872F762F05C0662371F096E876
:100B6000862F70E060E02AF09A95660F771F881F45
:100B7000DAF7880F9695879597F90895222309F457
:100B80005BC030E23093520038E030935000309137
:100B9000510033FFFCCF611538E4730738EE83074B
:100BA00031E0930709F482C0611534E2730734EF32
:100BB0008307910509F47CC0611532E173073AE7B8
:100BC0008307910509F44BC0611539E073073DE3D4
:100BD0008307910509F46EC0603834E873073EE17D
:100BE0008307910509F460C0603432E473073FE085
:100BF0008307910509F462C0603231EA730737E078
:100C00008307910509F458C0603930ED730733E06C
:100C10008307910509F454C0683438EE730731E056
:100C20008307910509F44EC06432744F8105910524
:100C300009F04AC084E414C032E2309352003AE032
:100C4000309350003091510031FFFCCF3091510072
:100C500033FDA1CF3091510033FFF8CF9CCF8CE012
:100C600098ED94BF222399F023E02093400094BF95
:100C700080934100442329F088ED84BF81E0809374
:100C8000420088ED84BF81E080938000089521E0D8
:100C90002093400094BF8093410094BF82E08093F2
:100CA000560020936000E6CF8CE1DACF80E0D8CF09
:100CB00084E0D6CF84E1D4CF8CE2D2CF84E2D0CF0F
:100CC00084E3CECF8CE3CCCF80E0089588ED84BF61
:100CD00081E080938000089588ED84BF83E0809355
:100CE0008000FFCFFC01308181E090E0062E01C042
:100CF000880F0A94EAF78095832380837096E60F25
:100D0000F11D8081422B807C482B40830895FC019B
:100D1000308181E090E0062E01C0880F0A94EAF746
:100D2000382B30837096E60FF11D8081807C842BF8
:100D30008083211103C080818760808308950F9391
:100D4000FC013185842F90E0880F991FA3E0B0E06B
:100D5000082E01C0AA0F0A94EAF7A095A323082E33
:100D600001C0660F0A94EAF7A62BA18741110FC0B4
:100D70000023A9F02287248581E090E0042E01C0A1
:100D8000880F0A94EAF7282B24870F9108954130A1
:100D900091F7011108C08385822B8387ECCF828570
:100DA000822B8287E8CF2387E6CFFC0110828CE07C
:100DB00081874150510946A357A326836083089534
:100DC000EF920F93FC0110828CE081874150510912
:100DD00046A357A320A731A70683E78283E1818337
:100DE00060830F91EF900895FC0110822CE0218721
:100DF00008954F925F926F927F928F929F92AF92DF
:100E0000BF92EF92FF920F931F932B013C01490178
:100E10005A0120E030E0A901C501B4010E94E912A5
:100E2000882309F442C0C301B2010E948105A501D3
:100E300094010E94EE1220E030E040E05FE30E9467
:100E40007D120E9460136115710521E082079105F2
:100E5000A0F421E0F8012083F7016083718381E031
:100E60001F910F91FF90EF90BF90AF909F908F9048
:100E70007F906F905F904F900895969587957795A6
:100E8000679561157105F1E08F07910580F09695E2
:100E900087957795679561157105F1E08F07910545
:100EA00050F423E0F8012083D7CF80E0D9CF22E0AF
:100EB000F8012083D1CF9695879577956795611531
:100EC0007105F1E08F07910588F0A3E0969587956D
:100ED00077956795AA95D1F761157105F1E08F07B0
:100EE000910540F425E0F8012083B6CF24E0F80115
:100EF0002083B2CF96958795779567959695879538
:100F00007795679561157105F1E08F07910520F4DC
:100F100026E0F8012083A0CF969587957795679571
:100F2000969587957795679561157105F1E08F071F
:100F3000910508F0BACF27E0F80120838DCFFC019E
:100F400010828CE081874150510946A357A3268324
:100F5000608308952091CF0127FDFCCF8093C001CD
:100F60009093C1011092C20186E08093CA0188ED7E
:100F700084BF81E08093CB018091C40108952091CA
:100F8000CF0127FDFCCF2091CF0121FF08C026E330
:100F90002093CA0128ED24BF21E02093CB0123E355
:100FA0002093CA018093C0019093C1011092C201A5
:100FB0006093C40185E38093CA0188ED84BF81E01A
:100FC0008093CB010895FF920F931F93CF93DF93EC
:100FD0008C01C7E0D0E0F12C09C0F1100CC0CE01AB
:100FE0000E94BF072196C032D10579F0F8016191C6
:100FF0008F016111F2CF60E0CE010E94BF07FF2494
:10100000F3942196C032D10589F7DF91CF911F91DA
:101010000F91FF900895CF93962F803208F47FC0F0
:10102000282F30E020523109F901E857FF4D508157
:10103000220F331FF901EA59FF4DC081F901EC5B22
:10104000FF4D2081318120930D2130930E2190930B
:10105000F921252F2F702C9FC02D1124EAE0EC0FD1
:10106000E093FA218093FB212FEF2093FC21506124
:101070005093FD2141116BC08091092190910A216B
:10108000A0910B21B0910C218093FE219093FF2120
:10109000A0930022B09301222091072130910821D2
:1010A00020930222309303228E2F90E08E3F9105F1
:1010B000A4F520910D2130910E2140E0842F90E085
:1010C000F901E80FF91F5081FC01EC5FFD4D5083E1
:1010D0004F5F4C13F3CF2091FA212E5F30E0215067
:1010E0003109121613060CF09FC080E090E040E03A
:1010F00050E0FC01E750FE4D8081580F4F5F842F78
:1011000090E082179307ACF3F901E750FE4D50834E
:1011100080919920813009F46BC0CF9108958E3071
:10112000E0F7282F30E0F901EB51FF4D5081220FFD
:10113000331FF901E753FF4DC081F901E355FF4D1E
:101140002081318120930D2130930E2180CF209179
:101150004C084091212150912221609123217091CE
:10116000242120FF21C04F5F5F4F6F4F7F4F40937F
:10117000FE215093FF216093002270930122209161
:101180006008309161082093022230930322883056
:1011900009F08ACF933009F087CF10920222109283
:1011A0000322E091FA2180CF4093FE215093FF214A
:1011B00060930022709301222091600830916108B1
:1011C0002093022230930322F0911221F03DF9F690
:1011D0002F303105E0F64F5F5F4F6F4F7F4F4093E9
:1011E000FE215093FF216093002270930122CFCF04
:1011F00083E88093A200C091A30A9091A30A9C7FE8
:101200009093A30A6091FA216E5F89EF91E20E94A8
:1012100084109091A30A8C2F8370892B8093A30A4A
:1012200087E88093A20079CF50E06ECFCF93E09112
:10123000FC242E2F30E024303105BCF090E020E07B
:1012400030E0F901E050FB4D4081F901EA5FFA4DD1
:1012500040839F5F292F30E0E091FC244E2F50E027
:10126000435051092417350764F38093FB24EA5F48
:10127000E093FC248091FF2480618093FF2480917F
:101280004C0880FF40C08091212190912221A091A3
:101290002321B09124210196A11DB11D8093002529
:1012A00090930125A0930225B093032580916008B7
:1012B000909161088093042590930525F0E0E45017
:1012C000FB4D10826091FC2440E0262F30E080E04E
:1012D00090E0F901E450FB4DDC01A550BB4D2081AD
:1012E0008C91280F20834F5F6091FC24262F30E0E3
:1012F000842F90E02817390764F780919920813076
:1013000079F1CF9108958091212190912221A0918E
:101310002321B09124218093002590930125A0934F
:101320000225B09303252091600830916108209335
:1013300004253093052540911221403D09F0BECF90
:101340002F30310508F0BACF0196A11DB11D809351
:10135000002590930125A0930225B0930325AECFDD
:1013600083E88093A200C091A30A9091A30A9C7F76
:101370009093A30A6E5F8BEF94E20E948410909189
:10138000A30A8C2F8370892B8093A30A87E880930C
:10139000A200CF9108953F924F925F926F927F92F9
:1013A0008F929F92AF92BF92CF92DF92EF92FF9275
:1013B0000F931F93CF93DF93CDB7DEB73C01962EEB
:1013C000142FF22E4C885D880E94660621E041E0D1
:1013D00060E078E488EE91E00E94BE0581E08093B1
:1013E0004800609218217092192190921A2110934E
:1013F0001B21E0921C2180931D2187E080931E21F8
:10140000F0921F210093202110922121109222217D
:10141000109223211092242110922521109226212E
:1014200082E090E00E94AA07382E83E090E00E94BC
:10143000AA07982E8FEF981609F4DAC0F31409F46E
:10144000A9C06FED80E090E00E94BF076F2D82E0A1
:1014500090E00E94BF0761E083E090E00E94BF0738
:101460000E94450180E090E00E94AA078E3E09F4A8
:101470009DC080E68093272180E4809328210E94EC
:1014800047010E947C01A0921621B0921721C092C0
:101490001421D09215218092132187E090E00E94C0
:1014A000AA078F3F09F4E2C009E211E2F6EFEF2E3E
:1014B000FF24FA94C701885191427C01C701800F33
:1014C000911F0E94AA07F80181938F01F1E2023473
:1014D0001F07A1F789E1E9E2F1E2A5E4B1E2019099
:1014E0000D928A95E1F784E090E00E94AA07082F08
:1014F00010E0009342211093432185E090E00E9488
:10150000AA07302F2227282B2093422130934321F2
:1015100021E042E15AE767E080E498E00E949F07FB
:10152000E091122181E08E0F80931221F0E0EB55C3
:10153000FF4D808190E0019780936808909369083F
:1015400081E08093470820E040E065E080E696E097
:101550000E94870680E28093650640E060E081E0BB
:1015600090E00E948E0F0E94EC0F81E291E2DF91E9
:10157000CF911F910F91FF90EF90DF90CF90BF9090
:10158000AF909F908F907F906F905F904F903F9023
:101590000C94A71191E0991254CF0E94450180E06C
:1015A00090E00E94AA078E3E09F063CF81E090E0B0
:1015B0000E94AA0780932721A114B10499F0760113
:1015C00085010C0D1D1DA0E26A2E712CC3010E9425
:1015D000AA07F70181937F01FFEF6F1A7F0AE016D8
:1015E000F106A1F780E8809328210E947C014BCF6F
:1015F0006F2D82E090E00E94BF0761E083E090E001
:101600000E94BF0782E090E00E94AA07382E83E084
:1016100090E00E94AA07982E8201B7E06B2E712CF1
:10162000E12C0CC0E1100FC0C3010E94BF07FFEF07
:101630006F1A7F0A80E26816710491F0F8016191D7
:101640008F016111EFCF60E0C3010E94BF07EE245C
:10165000E394FFEF6F1A7F0A80E26816710471F756
:101660006FED80E090E00E94BF07E8CE720107E0D6
:1016700010E0D12C0BC0D1100EC0C8010E94BF07D2
:101680000F5F1F4F0032110509F40ECFF701619172
:101690007F016111F0CF60E0C8010E94BF07DD2427
:1016A000D394EECF0E94440120E280E092EEA4E0C9
:1016B000B0E00197A109B1090097A105B105C9F7EB
:1016C00020936706F2CF8091212190912221A09151
:1016D0002321B09124210196A11DB11D80932121C8
:1016E00090932221A0932321B09324210E94DF1103
:1016F0008EE090E0809368089093690881E0809381
:1017000012210E940D0380914C08806180934C0847
:101710000E940F030E9411034091272147FD03C03F
:10172000842F8370B2C0842F8370813009F0ADC0E4
:1017300081E291E280930D2190930E2183E08093CA
:10174000F9218EE08093FA2188E08093FB218FEFCE
:101750008093FC2184E18093FD2180914C0880FFDF
:1017600018C08091212190912221A0912321B09134
:1017700024210196A11DB11D8093FE219093FF218C
:10178000A0930022B093012280916008909161089B
:1017900026C08091212190912221A0912321B091F6
:1017A00024218093FE219093FF21A0930022B093E7
:1017B0000122209160083091610850911221503D22
:1017C00071F42F30310558F40196A11DB11D80939D
:1017D000FE219093FF21A0930022B093012210924A
:1017E0000222109203228091212190912221A09126
:1017F0002321B09124218093042290930522A09369
:101800000622B09307222091FA212E5F30E021506A
:1018100031091216130684F450E060E080E090E095
:10182000FC01E750FE4D8081680F5F5F852F90E0DF
:1018300082179307ACF301C060E0F901E750FE4D59
:10184000608380919920813029F583E88093A200FC
:10185000C091A30A9091A30A9C7F9093A30A6091E0
:10186000FA216E5F89EF91E20E9484109091A30AA1
:101870008C2F8370892B8093A30A87E88093A20022
:1018800040912721842F837000C0882339F0813054
:1018900019F400C092E003C091E001C094E080918F
:1018A0002121892321F080E28093660605C046FF4E
:1018B00003C080E2809365060E940E0380914C086D
:1018C00084FF06C080911121811102C00E94520B39
:1018D0001895909127219370913009F00895462F23
:1018E00063E00C940B08CF92DF92FF920F931F934B
:1018F000CF93DF9300D0CDB7DEB78E3040F4E82F22
:10190000F0E0DF01AB51BF4D9C91961759F080E09C
:101910000F900F90DF91CF911F910F91FF90DF906B
:10192000CF900895EE0FFF1FE753FF4D6081718147
:101930006217730761F7883009F482C08A30E9F1D1
:101940008B3021F18C3009F4A4C08D3001F7FA01FD
:1019500080819181019609F4C4C08091442188233B
:10196000B1F2FA01608185E090E049835A830E94D8
:10197000BF0749815A81FA01618184E090E00E94A9
:10198000BF0783E08093112181E0C2CFFA018081FB
:10199000813009F4BBC0823009F4A7C0843009F457
:1019A000C8C0883089F76FEF87E090E00E94BF07DA
:1019B00083E08093112181E0ABCFFA01808186FD25
:1019C00004C080E280936606808110912721837F86
:1019D00080932721FA01808185FF41C015FF78C0DF
:1019E00083FF10C081E08093612110925F2180937A
:1019F000602110925E2180912721877F809327218B
:101A0000FA018081837079F4812F837009F4BCCF4F
:101A10001092612149835A830E940A0349815A81A5
:101A2000FA0180818370813029F1833009F0ACCFD5
:101A30001370133009F4A8CF0E940C0381E068CF23
:101A4000FA0180819181A281B381809321219093B9
:101A50002221A0932321B093242181E059CF15FFA7
:101A6000BFCF49835A830E94810149815A81FA017B
:101A70008081B6CF812F8370813009F485CF49836F
:101A80005A830E940B0349815A81FA018081837035
:101A9000CCCF8A0187E0C82ED12CF12C0DC0F110DB
:101AA00010C0C6010E94BF07FFEFCF1ADF0A20E275
:101AB000C216D10409F465CFF80161918F0161115B
:101AC000EECF60E0C6010E94BF07FF24F394ECCF85
:101AD00049835A830E94800149815A81FA01808199
:101AE0007FCF81E08093442113CF80E090E0498351
:101AF0005A830E94AA0749815A818E3E09F007CF76
:101B000083E080931121FA01808148CF85E491E23E
:101B100049835A830E94E3076FED80E090E00E94C2
:101B2000BF0783E08093112149815A81FA018081A6
:101B300032CF6EEE80E090E049835A830E94BF0767
:101B40006091272181E090E00E94BF0780911621DB
:101B50009091172149815A81892BD1F000E010E042
:101B6000E0911421F0911521E00FF11F6081C8016F
:101B7000809649835A830E94BF070F5F1F4F809151
:101B800016219091172149815A810817190740F3AE
:101B900083E080931121FA01808103CF0E94E41138
:101BA0000E940D038091680890916908E0911221CC
:101BB00021E02E0F20931221E770F0E0EB55FF4D4E
:101BC0003081830F911D809368089093690820FDF0
:101BD0002DC180919920813071F482E08093850637
:101BE00083E88093A2008091A30A8F7C8093A30A4C
:101BF00087E88093A20080916821811103C08091C1
:101C000067210FC0815080936821882319F080914B
:101C1000672107C0109268211092672110926221FB
:101C2000A1C0882309F49EC0A091F922B091FA22A4
:101C30008091FC248F3F59F01091FD245091FE2497
:101C40000091FF2430E0E32E35E2F32E0AC010911C
:101C5000FF24509100250091012522E0E22E25E28B
:101C6000F22EFD01319681F090E040E020E030E07E
:101C7000E901C550DB4D2881420F9F5F292F30E0DD
:101C80002E173F07A8F301C040E0E550FB4D9081BF
:101C9000491366C05F3F09F063C09091FB24913007
:101CA00099F51D31B0F41E3008F026C1E12FF0E0A7
:101CB000EB51FF4D908109131FC1193009F017C175
:101CC000809160089091610880932521909326214E
:101CD0000EC1602F812F0E94AD039091272194FDAA
:101CE0003FC0811103C08091FC2406C041E061E047
:101CF000812F0E940B0834C090E0883F910584F545
:101D000089E00E9416092CC0CD010497202F2F7066
:101D1000622F70E00E9404141D3138F49B01A7016A
:101D2000602F812F0E94730C06C09B01A701602FBA
:101D3000812F0E94C6039091272194FD11C0882312
:101D400031F041E062E0812F0E940B0809C08091D0
:101D5000FC2490E0883F91051CF48AE00E9416095B
:101D60001092672180919920813009F05CC08091A8
:101D7000880680FF46C080910F2190911021019626
:101D8000883B2BE0920729F080930F21909310213C
:101D90003CC010920F211092102180912721982F82
:101DA00093709130E9F486FD03C090E2909366064B
:101DB000982F907F9093272183FF0BC010925F2173
:101DC00081E08093602110925E21892F877F80932C
:101DD0002721109261210E940A039091992001C04D
:101DE00091E0109265211092662110926321109269
:101DF00064218091A30A8C7F8093A30A913029F0FB
:101E000012C010920F211092102183E88093A2003B
:101E10008091A30A80638093A30A87E88093A2003D
:101E200082E0809386060E94100302C00E94110384
:101E300080911121882339F08150809311218111E3
:101E400002C00E946C06809160218823E1F080919D
:101E5000122183708230B9F480915E218E3060F45B
:101E6000893009F04EC020916008309161082093BC
:101E700025213093262145C08F5F80935E218C31D0
:101E800011F41092602180916121882311F18091D9
:101E900012218370F1F480915F21E82FF0E0E85780
:101EA000FF4D6081805E0E94AD03882339F08091F0
:101EB0005F2141E061E0805E0E940B0880915F211C
:101EC0008F5F80935F2190911321891302C010923C
:101ED00061210E940E0380914C0884FF06C080910E
:101EE0001121811102C00E94520B189511C08091DE
:101EF000272184FFFBCE34CF9091272194FFFCCE85
:101F00002FCF41E061E00E940B0880915E21B4CFA9
:101F10008091272185FB882780F90895FF920F93F0
:101F20001F93CF93DF9300D0CDB7DEB789839A8319
:101F3000F62E142F20E040E061E080E896E00E9459
:101F4000870620E040E060E080E896E00E947206AC
:101F500001E021E040E063E080E896E00E949F0617
:101F600082E08093860683E08093A50A898180932E
:101F7000A60A8F2D90E18902B00111248A818F7009
:101F8000862B8093A70A112329F08091A40A8460EC
:101F90008093A40A88E08093850620E040E063E017
:101FA00080E896E00E94870620E040E062E080E85A
:101FB00096E00E9472068091880680FF05C080919D
:101FC000A30A8C7F8093A30A0F900F90DF91CF918B
:101FD0001F910F91FF900895E0EAFAE084818861F3
:101FE000848380EE818383818063838308951F923D
:101FF0000F920FB60F9211242F933F934F935F933D
:102000006F937F938F939F93AF93BF93EF93FF93C0
:102010000E94A9032091652130916621C901019692
:102020008093652190936621F901E550FD4D208153
:102030002093A00A811522E09207F9F020916321F4
:10204000309164212817390729F48091A30A8C7FE5
:102050008093A30A0E94AA03FF91EF91BF91AF91D1
:102060009F918F917F916F915F914F913F912F91B0
:102070000F900FBE0F901F9018951092652110922F
:10208000662180E090E0DACF1F920F920FB60F9298
:1020900011242F933F934F935F936F937F938F936D
:1020A0009F93AF93BF93EF93FF930E94AB038091F5
:1020B000880680FD23C020916521309166218091A2
:1020C0006321909164212817390729F08091A30A90
:1020D00083608093A30A0E94AC03FF91EF91BF91AC
:1020E000AF919F918F917F916F915F914F913F91B0
:1020F0002F910F900FBE0F901F9018958091A30AFB
:102100008C7F8093A30AE7CFBF92CF92DF92EF92AA
:10211000FF920F931F93CF93DF936C01B62E8091A4
:10212000880680FD05C08091A30A83608093A30A7E
:102130000091632110916421C0E0D2E0C01BD10B5B
:10214000EB2CF12CCE15DF0560F1A701B601C8011B
:1021500085509D4D0E943914809165219091662192
:10216000E00EF11EE0926321F0926421E11422E07E
:10217000F20609F448C008171907B8F5E816F90679
:10218000A0F18FEFE81AF80AE0926521F09266213B
:10219000E11422E0F20649F51092652110926621C1
:1021A00024C0AE01B601C80185509D4D0E9439146E
:1021B000BC1AEB2CF12CBE016C0D7D1DA7018BEF21
:1021C00092E20E9439148091652190916621E092FB
:1021D0006321F09264210817190788F42FEFE21A9F
:1021E000F20AE0926521F0926621DF91CF911F9172
:1021F0000F91FF90EF90DF90CF90BF900895E81679
:10220000F90660F7F2CF1092632110926421892BB6
:1022100061F781E090E08093652190936621E5CF9E
:102220001F920F920FB60F9211242F933F934F934B
:102230005F936F937F938F939F93AF93BF93EF932E
:10224000FF930E94A7039091A00AE091622181E090
:102250008E0F80936221F0E0E550FB4D908381303A
:10226000E9F0843019F190E02091F9223091FA22BE
:102270008217930749F10E94A803FF91EF91BF9144
:10228000AF919F918F917F916F915F914F913F910E
:102290002F910F900FBE0F901F9018958091FB24E7
:1022A00081508230D0F110926221E5CF8091FC24E0
:1022B0008F3F01F190E08E3F9105A9F30296809344
:1022C000F9229093FA22D7CF20919920213061F101
:1022D0002091FC242F3F29F122E030E0821B930B58
:1022E0008093F9229093FA221092622181E08093E8
:1022F0006721C1CF8091FC249091FD2404968F3FEB
:10230000910509F080F68091FD249091FE240496B9
:102310008093F9229093FA22AECF82E380936821D2
:10232000AACF24E030E0DACF82E08093850683E80C
:102330008093A2008091A30A8F7C8093A30A87E8F0
:102340008093A2008091F9229091FA22C1CFCF937D
:10235000DF9300D0CDB7DEB723E130E029833A83A5
:1023600080936F21909370219C012F5F3F4F2093AA
:102370006D2130936E212F5F3F4F20936B2130935F
:102380006C2103968093692190936A2183E0809366
:10239000B50989818093B6098A818F708093B709C6
:1023A00020E040E067E080E696E00E94870688E053
:1023B0008093B4090F900F90DF91CF910895109200
:1023C0007121109272210895209171213091722112
:1023D000C9010196809371219093722184309105F7
:1023E00071F050F08630910530F08830910538F06A
:1023F0008E3C974021F0089522303105E0F721E02E
:102400004CE250E066E080E099E00C94D506E09163
:102410006F21F091702120812A3A71F4E0916D21B1
:10242000F0916E2140814F3A69F41895E0916B214B
:10243000F0916C2180811CC0E0916D21F0916E21A2
:10244000908101C0942F9A3A51F4E0916B21F09160
:102450006C2130813F3A51F418954AEA18C0E09156
:102460006B21F0916C218081492F02C0832F4AEAB1
:102470008A3A51F4E0916921F0916A2180818F3A82
:1024800029F418953AEA03C0382F01C03AEA80913E
:1024900071219091722184309105C9F030F481301E
:1024A000910569F0029779F022C087309105A9F073
:1024B0008E3C27E09207A1F00697C9F40BC08AEA88
:1024C0008093B00914C08FEA8093B00910C02093A4
:1024D000B0090DC04093B0090AC03093B00907C0DD
:1024E000E0916921F0916A2180818093B00980E0B8
:1024F00099E00E94F40618955058BB27AA270E941D
:1025000094120C94CA130E94BC1338F00E94C31397
:1025100020F039F49F3F19F426F40C94B9130EF40B
:10252000E095E7FB0C94B313E92F0E94DB1358F3FB
:10253000BA17620773078407950720F079F4A6F5A8
:102540000C94FD130EF4E0950B2EBA2FA02D0B0169
:10255000B90190010C01CA01A0011124FF27591BE8
:1025600099F0593F50F4503E68F11A16F040A22FEE
:10257000232F342F4427585FF3CF4695379527955F
:10258000A795F0405395C9F77EF41F16BA0B620B5E
:10259000730B840BBAF09150A1F0FF0FBB1F661FA5
:1025A000771F881FC2F70EC0BA0F621F731F841FE8
:1025B00048F4879577956795B795F7959E3F08F00E
:1025C000B0CF9395880F08F09927EE0F97958795D0
:1025D00008950E948F1308F481E008950E94021369
:1025E0000C94CA130E94C31358F00E94BC1340F00D
:1025F00029F45F3F29F00C94B31351110C94FE138E
:102600000C94B9130E94DB1368F39923B1F355239B
:1026100091F3951B550BBB27AA27621773078407F5
:1026200038F09F5F5F4F220F331F441FAA1FA9F38B
:1026300035D00E2E3AF0E0E832D091505040E69579
:10264000001CCAF72BD0FE2F29D0660F771F881FDA
:10265000BB1F261737074807AB07B0E809F0BB0BCD
:10266000802DBF01FF2793585F4F3AF09E3F5105E1
:1026700078F00C94B3130C94FE135F3FE4F3983E90
:10268000D4F3869577956795B795F7959F5FC9F7CA
:10269000880F911D9695879597F90895E1E0660F4B
:1026A000771F881FBB1F621773078407BA0720F0C4
:1026B000621B730B840BBA0BEE1F88F7E09508952D
:1026C0000E94E31388F09F5798F0B92F9927B751CC
:1026D000B0F0E1F0660F771F881F991F1AF0BA95C6
:1026E000C9F714C0B13091F00E94FD13B1E0089514
:1026F0000C94FD13672F782F8827B85F39F0B93F06
:10270000CCF3869577956795B395D9F73EF4909578
:102710008095709561957F4F8F4F9F4F0895990FCA
:102720000008550FAA0BE0E8FEEF16161706E8079B
:10273000F907C0F012161306E407F50798F0621BBC
:10274000730B840B950B39F40A2661F0232B242B91
:10275000252B21F408950A2609F4A140A6958FEFB0
:10276000811D811D089597F99F6780E870E060E002
:1027700008959FEF80EC089500240A94161617061A
:1027800018060906089500240A9412161306140662
:1027900005060895092E0394000C11F4882352F0C5
:1027A000BB0F40F4BF2B11F460FF04C06F5F7F4F7D
:1027B0008F4F9F4F089557FD9058440F551F59F064
:1027C0005F3F71F04795880F97FB991F61F09F3F1E
:1027D00079F087950895121613061406551FF2CF47
:1027E0004695F1DF08C0161617061806991FF1CF97
:1027F00086957105610508940895E894BB276627BE
:102800007727CB0197F90895AA1BBB1B51E107C09D
:10281000AA1FBB1FA617B70710F0A61BB70B881F70
:10282000991F5A95A9F780959095BC01CD010895FF
:102830000024A7FD00942A0F301D401D501D601D6F
:10284000701D801D901D08952A153B054C055D05E2
:102850006E057F058007910708950024A7FD009469
:102860002A17300540055005600570058005900564
:102870000895FB01DC0102C001900D9241505040CF
:08288000D8F70895F894FFCF8A
:10288800E603E803EE03F4039204FA0303040C04DA
:102898009D0415042304310437043D0452046704DD
:1028A8007D04D404D504D604D704D804D904DA04A2
:1028B800DB04DC04DD04DE04DF04E004E104E204FC
:1028C800D3047C0477217F218021812182218321E7
:1028D8008521872189218B218D218F21902191218B
:1028E8009921A121A9210100010001000100010095
:1028F80001000100010001000100010001000100C8
:1029080001000100010001000801010101020202A9
:10291800020202010108080808015266696452654A
:1029280061646572000F10100F100F101018211A33
:10293800211B211C211D211E211F21202121212590
:10294800212721282129214221010001000100011C
:102958000001000100010001000100010001000167
:102968000019000100020101010101010104020135
:042978000101020057
:00000001FF
